:100000000C944B060C9473060C9473060C947306B4
:100010000C9473060C9473060C9473060C9473067C
:100020000C9473060C9473060C9473060C9473066C
:100030000C9473060C9473060C9473060C9473065C
:100040000C94521C0C9473060C949F0D0C94790D17
:100050000C9473060C9473060C9473060C9473063C
:100060000C94D10D0C947306DB40A4A62EAFDA02DB
:1000700081DA1281DA02818F2000A1C8D300408D7D
:10008000AED580A800006000000000000000000065
:100090000000000000E00000000000000000000080
:1000A00000000001E000000000000000000000006F
:1000B000000001F00000000000000000000000004F
:1000C0000003F0000000000000000000000000003D
:1000D00007F0000000000000000000000000000722
:1000E000F8000000000000000000000000000FF811
:1000F00000000003C0007E000001E0007F0FF80058
:10010000000003C000FE000001E000FFEFF8000067
:100110000003C000FE000001E000FFFFF800000047
:1001200003C000F00000000F007FFE7FC00000034E
:10013000C000F00000000F003FFE7FF83FF1FBCF52
:10014000FCFEF3BC3DEFE01FFE7FFF7FFBFFDFFE09
:10015000FEFFBC3DEFE01FC6FFFF7FFBFFDFFEFEA3
:10016000FFBC3DEFE00FE3C7FE787BC3DE1EF0FF70
:10017000BC3DEF0007FF87FC787BC3DE1EF0F83C38
:100180003DEF0001FFFFF0007BC3C01EF0F03C3DDF
:10019000EF0001F37FE03FFBC3CFFEF0F03C3DEF0B
:1001A0000003E33F807FFBC3DFFEF0F03C3DEF0048
:1001B00007E73C00787BC3DE1EF0F03C3DEF000714
:1001C000FFBE00787BC3DE1EF0F03C3DEF0007FF72
:1001D000FE00787BC3DE1EF0F03C3DEF000FFFFE1B
:1001E000007FFBFFDFFEF0F03FFDEFE00FFFFF00C1
:1001F0007FFBFFDFFEF0F03FFDEFE00FF9FF003E79
:1002000079F9CF9EF0F01F3DE7E01FF1FF000000FD
:100210000000000000000000001F80FF007FFFFFC3
:10022000FFFFFFFFFFFFFFE01C007F007FFFFFFFDE
:10023000FEB46D888D18E000001F007FFFFFFFFEF9
:1002400095AD7DB577E000000F007FFFFFFFFEA5B5
:10025000AD9D8D19E0000006007FFFFFFFFEB5ADEC
:10026000EDB57EE00000000000018000000000000D
:1002700000000000038000000000000000000007F4
:10028000C000000000000000000007C000000000E7
:1002900000000000000FC00000000000000000008F
:1002A0001FE00000000000000000001FE000000050
:1002B0000000000000003FE000000000000000001F
:1002C000003FF00000000000000000007FF0000090
:1002D00000000000001FF87FF00000000000000098
:1002E0003FFE7FF0000000000000003FFF7FF000B5
:1002F0000000000000001FFFFBE000000000000005
:10030000000FFFF9FFC00000000000000FFFF9FF21
:10031000F800000000000007FFF1FFFF00000000F0
:10032000000003FC73FFFF80000000000001FE3F9F
:10033000FFFF80000000000000FF1E0FFF00000014
:10034000000000007FFE1FFC000000000000003FD6
:10035000FFFFF8000000000000000FDFFFE00000DA
:1003600000000000001F19FFC00000000000000096
:100370003F3CFF00000000000000007E7CF8000011
:100380000000000000007FFE7C0000000000000074
:1003900000FFFFFC0000000000000000FFFFFE0067
:1003A00000000000000000FFFFFE00000000000051
:1003B0000001FFEFFE0000000000000001FFCFFE83
:1003C0000000000000000003FF07FE000000000026
:1003D000000003FC07FE0000000000000003F00323
:1003E000FE00000000000000018000FE0000000090
:1003F0000000000000007E0000000000000000007F
:10040000003E000000000000000000000C000000A2
:10041000000000078000FC000003C000000007800F
:1004200001FC000003C0000000078001FC00000385
:10043000C0000000078001E00000001E000000076F
:100440008001E00000001E007FE3F79FF9FDE778E0
:100450007BDFC0FFF7FFBFFDFDFF787BDFC0FFF74D
:10046000FFBFFDFDFF787BDFC0F0F787BC3DE1FFFC
:10047000787BDE00F0F787BC3DE1F0787BDE0000A2
:10048000F787803DE1E0787BDE007FF7879FFDE125
:10049000E0787BDE00FFF787BFFDE1E0787BDE00E0
:1004A000F0F787BC3DE1E0787BDE00F0F787BC3DEC
:1004B000E1E0787BDE00F0F787BC3DE1E0787BDEB1
:1004C00000FFF7FFBFFDE1E07FFBDFC0FFF7FFBFED
:1004D000FDE1E07FFBDFC07CF3F39F3DE1E03E7B8D
:1004E000CFC00000000000000000000000FFFFFF80
:1004F000FFFFFFFFFFFFFFC0FFFFFFFFFD68DB11F6
:100500001A31C0FFFFFFFFFD2B5AFB6AEFC0FFFF50
:10051000FFFFFD4B5B3B1A33C0FFFFFFFFFD6B5B33
:10052000DB6AFDC000000000240027002A00000054
:100530000000250028002B000000000023002600FA
:100540002900040404040404040402020202020256
:100550000303030303030102040810204080010287
:100560000408102001020408102000000008000206
:10057000010000030407000000000000000000016B
:1005800003070F1F3F7F0080C0E0F0F8FCFE000073
:100590000000003E5B4F5B3E3E6B4F6B3E1C3E7C63
:1005A0003E1C183C7E3C181C577D571C1C5E7F5E11
:1005B0001C00183C1800FFE7C3E7FF0018241800D0
:1005C000FFE7DBE7FF30483A060E26297929264067
:1005D0007F050507407F05253F5A3CE73C5A7F3E93
:1005E0001C1C08081C1C3E7F14227F22145F5F0025
:1005F0005F5F06097F017F006689956A60606060C1
:100600006094A2FFA29408047E040810207E2010AB
:1006100008082A1C08081C2A08081E101010100CB4
:100620001E0C1E0C30383E3830060E3E0E06000002
:1006300000000000005F00000007000700147F14A6
:100640007F14242A7F2A1223130864623649562015
:10065000500008070300001C2241000041221C003A
:100660002A1C7F1C2A08083E0808008070300008F9
:1006700008080808000060600020100804023E51CD
:1006800049453E00427F400072494949462141495F
:100690004D331814127F1027454545393C4A4949C6
:1006A0003141211109073649494936464949291E30
:1006B000000014000000403400000008142241141F
:1006C00014141414004122140802015909063E4171
:1006D0005D594E7C1211127C7F494949363E414199
:1006E00041227F4141413E7F494949417F090909F2
:1006F000013E414151737F0808087F00417F41005E
:100700002040413F017F081422417F404040407F0C
:10071000021C027F7F0408107F3E4141413E7F0959
:100720000909063E4151215E7F091929462649499A
:10073000493203017F01033F4040403F1F204020DA
:100740001F3F4038403F63140814630304780403D8
:100750006159494D43007F41414102040810200086
:100760004141417F040201020440404040400003F7
:1007700007080020545478407F28444438384444C3
:100780004428384444287F385454541800087E09BB
:100790000218A4A49C787F0804047800447D4000DB
:1007A0002040403D007F1028440000417F40007CF5
:1007B000047804787C080404783844444438FC18ED
:1007C00024241818242418FC7C08040408485454D1
:1007D000542404043F44243C4040207C1C204020FE
:1007E0001C3C4030403C44281028444C9090907C65
:1007F0004464544C44000836410000007700000077
:100800004136080002010204023C2623263C1EA1B8
:10081000A161123A4040207A385454555921555517
:1008200079412254547842215554784020545579C6
:10083000400C1E5272123955555559395454545959
:1008400039555454580000457C410002457D420012
:1008500001457C407D1211127DF0282528F07C5442
:100860005545002054547C547C0A097F493249493B
:1008700049323A4444443A324A4848303A414121A4
:100880007A3A42402078009DA0A07D3D4242423D00
:100890003D4040403D3C24FF2424487E4943662B94
:1008A0002FFC2F2BFF0929F620C0887E0903205436
:1008B0005479410000447D413048484A3238404034
:1008C000227A007A0A0A727D0D19317D2629292F94
:1008D00028262929292630484D40203808080808AC
:1008E00008080808382F10C8ACBA2F102834FA00AE
:1008F000007B000008142A142222142A1408550030
:10090000550055AA55AA55AAFF55FF55FF000000EE
:10091000FF00101010FF00141414FF001010FF004F
:10092000FF1010F010F0141414FC001414F700FF62
:100930000000FF00FF1414F404FC141417101F101F
:10094000101F101F1414141F00101010F0000000CE
:10095000001F101010101F10101010F010000000D9
:10096000FF101010101010101010FF10000000FFEA
:10097000140000FF00FF00001F10170000FC04F42B
:1009800014141710171414F404F40000FF00F714E3
:10099000141414141414F700F7141414171410106A
:1009A0001F101F141414F4141010F010F000001F86
:1009B000101F0000001F14000000FC140000F010C5
:1009C000F01010FF10FF141414FF141010101F006B
:1009D000000000F010FFFFFFFFFFF0F0F0F0F0FF6D
:1009E000FFFF0000000000FFFF0F0F0F0F0F384444
:1009F000443844FC4A4A4A347E02020606027E0219
:100A00007E0263554941633844443C04407E201EC5
:100A10002006027E020299A5E7A5991C2A492A1CF4
:100A20004C7201724C304A4D4D303048784830BCE1
:100A3000625A463D3E494949007E0101017E2A2A0B
:100A40002A2A2A44445F444440514A444040444A8C
:100A500051400000FF0103E080FF000008086B6BBD
:100A6000083612362436060F090F06000018180043
:100A700000001010003040FF0101001F01011E00A6
:100A8000191D1712003C3C3C3C0000000000000017
:100A90000000000000000000000000000000000056
:100AA0000000000000000000000000000000000046
:100AB0000000000000000000000000000000000036
:100AC0000000000000000000000000000000000026
:100AD0000000000000000000000000000000000016
:100AE0000000000000000000000000000000000006
:100AF00000000000000000000000000000000C00EA
:100B000006001C003FFFFEC0006FFEFFFFF80E0056
:100B10001E001C001FFFFCF000EFFE7FFFF00F0027
:100B20003E003E001FFFFCF803EFFE7FFFF00FC00A
:100B30007E003E000FFFF8FC07EFFE3FFFE00FE1F5
:100B4000FE007F000FFFF8FF0FEFFE3FFFE00FF307
:100B5000FE00FF8007FFF0FFBFEFFE1FFFC00FFF8B
:100B6000FE00FF8007FFF0FFFFEFFE1FFFC00FFF3B
:100B7000FE01FFC003FFE0FFFFEFFE0FFF800FFF4E
:100B8000FE01FFE003FFE0FFFFEFFE0FFF800FFF1E
:100B9000FE03FFE001FFC0FFFFEFFE07FF000FFFB6
:100BA000FE07FFF003FFE0FFFFEFFE0FFF800FFFE8
:100BB000FE07FFF003FFE0FFFFEFFE0FFF800FFFD8
:100BC000FE0FFFF807FFF0FFFFEFFE1FFFC00FFF54
:100BD000FE1FFFFC07FFF0FFFFEFFE1FFFC00FFF30
:100BE000FE1FFFFC0FFFF8FFFFEFFE3FFFE00FFFD0
:100BF000FE3FFFFE0FFFF8FFFFEFFE3FFFE00FFF9E
:100C0000FE3FFFFE1FFFFCFFFFEFFE7FFFF00FFF29
:100C1000FE7FFFFF1FFFFCFFFFEFFE7FFFF00FFFD8
:100C2000FEFFFFFFBFFFFEFFFFEFFEFFFFF800002C
:100C300000000000000000000000000000000000B4
:100C400000000000000000000000000000000000A4
:100C50000000000000000000000000000000000094
:100C60000000000000000000000000000000000084
:100C70000000000000000000000000000000000074
:100C80000000000000000000000000000000220042
:100C9000FF210000DA2611241FBECFEFD8E0DEBF0F
:100CA000CDBF11E0A0E0B1E0E0E1F5E502C00590C4
:100CB0000D92A639B107D9F725E0A6E9B1E001C048
:100CC0001D92A339B207E1F716E0CBE4D6E004C0E9
:100CD0002197FE010E945329CA34D107C9F70E9407
:100CE0009C1C0C94862A0C940000CF92DF92EF9209
:100CF000FF920F931F93CF93DF936C017A018B01C7
:100D0000C0E0D0E0CE15DF0581F0D8016D918D01F6
:100D1000D601ED91FC910190F081E02DC60109957D
:100D2000892B11F02196EECF7E01C701DF91CF9183
:100D30001F910F91FF90EF90DF90CF900895FC01ED
:100D4000538D448D252F30E0842F90E0821B930B30
:100D5000541710F0CF96089501970895FC01918DD6
:100D6000828D981761F0828DDF01A80FB11D5D960D
:100D70008C91928D9F5F9F73928F90E008958FEF7B
:100D80009FEF0895FC01918D828D981731F0828D2F
:100D9000E80FF11D858D90E008958FEF9FEF089586
:100DA000FC01918D228D892F90E0805C9F4F821BEA
:100DB00091098F739927089583EC94E00E94D006DF
:100DC00021E0892B09F420E0822F0895FC01848D15
:100DD000DF01A80FB11DA35ABF4F2C91848D90E065
:100DE00001968F739927848FA689B7892C93A08940
:100DF000B1898C91837080648C93938D848D9813CA
:100E000006C00288F389E02D80818F7D808308955C
:100E1000EF92FF920F931F93CF93DF93EC0181E04A
:100E2000888F9B8D8C8D981305C0E889F989808106
:100E300085FD26C0F62E0B8D10E00F5F1F4F0F7340
:100E40001127E02E8C8DE8120CC00FB607FCFACFEC
:100E5000E889F989808185FFF5CFCE010E94E606F9
:100E6000F1CF8B8DFE01E80FF11DE35AFF4FF082A9
:100E70009FB7F8940B8FEA89FB89808180620AC052
:100E80009FB7F894EE89FF896083E889F9898081AA
:100E90008370806480839FBF81E090E0DF91CF9179
:100EA0001F910F91FF90EF900895CF93DF93EC0186
:100EB000888D8823C9F0EA89FB89808185FD05C07A
:100EC000A889B9898C9186FD0FC00FB607FCF5CFB4
:100ED000808185FFF2CFA889B9898C9185FFEDCFFC
:100EE000CE010E94E606E7CFDF91CF91089580E022
:100EF00090E0892B29F00E94DC0681110C940000FF
:100F0000089585ED8093BC008091BC0084FDFCCFEA
:100F100010928E04089540916D02262F30E0240F28
:100F2000311D21323105DCF420918E042430C9F4C6
:100F3000FC0180E090E0861758F430916D02219119
:100F4000DC01A35BBD4FA30FB11D2C930196F3CF22
:100F500080916D02680F60936D0280E0089581E0DA
:100F6000089582E00895089508950895E0919B0101
:100F700080919A01E81730F4F0E0E35DFD4F808145
:100F800090E008958FEF9FEF089590919B018091DD
:100F90009A01981750F4E92FF0E0E35DFD4F2081AE
:100FA00030E09F5F90939B0102C02FEF3FEFC9019C
:100FB000089580919A0190E020919B01821B9109F4
:100FC0000895CF92DF92EF92FF920F931F93CF93EA
:100FD000DF937C01CB018A0120918F04222389F0C9
:100FE000EB016B01C40ED51ECC15DD0569F06991CE
:100FF000D701ED91FC910190F081E02DC701099599
:10100000F3CF642F0E948B07C801DF91CF911F910E
:101010000F91FF90EF90DF90CF900895CF93DF93E3
:101020001F92CDB7DEB7698320918F042223D1F0C0
:101030002091B204203240F021E030E0FC01338303
:10104000228380E090E015C080919004E82FF0E0CA
:10105000EF56FB4F998190838F5F8093900480932C
:10106000B20405C061E0CE0101960E948B0781E0C9
:1010700090E00F90DF91CF910895FC0177FDB9C00A
:1010800080859185681779070CF0B3C057FDB1C012
:1010900082859385481759070CF008958589823019
:1010A00079F484819581DC01A61BB70BBD016150E9
:1010B000710986819781DC01A41BB50BAD010EC0BF
:1010C000833009F084C064277527CA0186279727D3
:1010D0006827792746815781481B590B4150510990
:1010E0002130310531F048F12230310509F44AC090
:1010F0000895CA0157FD07969C01A3E035952795F1
:10110000AA95E1F7A481B5812A9FC0012B9F900D7C
:101110003A9F900D1124680F791F068CF78DE02DF2
:10112000E60FF71F4770552781E090E001C0880F58
:101130004A95EAF79081892B48C0CA0157FD079666
:101140009C0193E0359527959A95E1F7A481B581A7
:101150002A9FC0012B9F900D3A9F900D1124680F7C
:10116000791F068CF78DE02DE60FF71F4770552786
:1011700081E090E001C0880F4A95EAF78095908160
:10118000892323C0CA0157FD07969C0183E035954A
:1011900027958A95E1F7A481B5812A9FC0012B9FED
:1011A000900D3A9F900D1124680F791F068CF78DD2
:1011B000E02DE60FF71F4770552781E090E001C052
:1011C000880F4A95EAF790818927808308958130B6
:1011D00009F086CF64277527462757276427752788
:1011E00084819581DC01A61BB70BBD01615071099B
:1011F00077CF08957F928F929F92AF92BF92CF92B6
:10120000DF92EF92FF920F931F93CF93DF93FC0136
:101210004A01AA24BB24782CC32ED42EE52EFF2409
:10122000BC2DA22F8085882361F0889E4001112467
:10123000792C8C9D60011124BD2D829F7001112499
:10124000AF2D9685D385E184F2849D1308C0CB0130
:10125000880F991F680F791F6E0D7F1D1CC0660FC8
:10126000771F660F771F6E0D7F1D052F1127222711
:1012700033277B01E90EF11C811102C0202F09C028
:1012800090E0809F6001819FD00C909FD00C112432
:101290002D2DE701288383859B01280F311DE9014E
:1012A00078828485EB01C80FD11DB8838585FB0149
:1012B000E80FF11DA083DF91CF911F910F91FF9057
:1012C000EF90DF90CF90BF90AF909F908F907F90E6
:1012D00008950895FC016370658B84819581268152
:1012E0003781613039F0633029F091878087338707
:1012F00022870895318720879387828708956F9288
:101300007F928F929F92AF92BF92CF92DF92EF9295
:10131000FF920F931F93CF93DF93EC014B015A0180
:1013200069013801E881F9810284F385E02D09958E
:10133000E881F9810288F389E02D87019601A501F2
:10134000B401CE010995A501460D571D4150510923
:10135000E881F9810288F389E02D9601B401CE017C
:101360000995E881F9810088F189E02D9301A501B3
:10137000B401CE010995C80CD91CB60161507109A0
:10138000E881F9810088F189E02D9301A501CE0162
:101390000995E881F9810688F789E02DCE01DF9172
:1013A000CF911F910F91FF90EF90DF90CF90BF9062
:1013B000AF909F908F907F906F9009948F929F92A3
:1013C000AF92BF92CF92DF92EF92FF920F931F9353
:1013D000CF93DF934C016B015A01E901DC01ED91E0
:1013E000FC916217730781F40417150724F48B2D01
:1013F0005801042F182F0A191B0998012F5F3F4F1E
:10140000048CF58DE02D12C04017510709F5261701
:10141000370724F48D2D6901C62FD82F9E012C1972
:101420003D092F5F3F4F068CF78DE02D8701A50109
:10143000B601C4010995DF91CF911F910F91FF90E3
:10144000EF90DF90CF90BF90AF909F908F900895D6
:101450000284F385E02D0995D401ED91FC91048877
:10146000F589E02D9E01A501B601C4010995D401BD
:10147000ED91FC910688F789E02DC401DF91CF91B1
:101480001F910F91FF90EF90DF90CF90BF90AF90A2
:101490009F908F900994EF92FF920F931F93DC011E
:1014A0001A960D911C911B9718962D913C911997A6
:1014B000ED91FC9100A0F1A1E02D7B0140E050E016
:1014C00060E070E009951F910F91FF90EF900895F3
:1014D0004F925F926F927F928F929F92AF92BF9244
:1014E000CF92DF92EF92FF920F931F93CF93DF93F0
:1014F0006C012B015A0139014801DC01ED91FC918D
:101500000284F385E02D0995E201640C751CD60177
:10151000ED91FC91C615D7055CF40088F189E02DAA
:1015200087019401A501BE01C60109952196EFCF5F
:101530000688F789E02DC601DF91CF911F910F91A9
:10154000FF90EF90DF90CF90BF90AF909F908F90E3
:101550007F906F905F904F9009948F929F92AF927F
:10156000BF92CF92DF92EF92FF920F931F93CF9390
:10157000DF93EC015B014A016901E881F981028492
:10158000F385E02D099595012C0D3D1D2150310964
:10159000E881F9810488F589E02D78018401A401AE
:1015A000B501CE010995E881F9810688F789E02D1A
:1015B000CE01DF91CF911F910F91FF90EF90DF90BF
:1015C000CF90BF90AF909F908F9009948F929F92F1
:1015D000AF92BF92CF92DF92EF92FF920F931F9341
:1015E000CF93DF93EC015B014A0169017801E88147
:1015F000F9810284F385E02D0995C80CD91C860178
:1016000001501109E881F9810488F589E02D9501DF
:10161000A401B501CE010995E881F9810688F78911
:10162000E02DCE01DF91CF911F910F91FF90EF90B0
:10163000DF90CF90BF90AF909F908F900994EF92E2
:10164000FF920F931F93DC01ED91FC9100A0F1A19B
:10165000E02D09951F910F91FF90EF9008950F9342
:101660001F93DC01ED91FC91068CF78DE02D09951F
:101670001F910F9108950F931F93DC01ED91FC9141
:10168000048CF58DE02D09951F910F910895DC01D3
:10169000ED91FC910084F185E02D09942F923F9209
:1016A0004F925F926F927F928F929F92AF92BF9272
:1016B000CF92DF92EF92FF920F931F93CF93DF931E
:1016C00000D000D000D0CDB7DEB72C017E836D8373
:1016D0006A015901C801FC82EB824801841A950A0B
:1016E00097FE03C091948194910835012D813E812C
:1016F000621A730A77FE03C07194619471086814CA
:1017000079045CF43A2D2B2D5C01832F922F3D81BF
:101710002E81DE82CD82C32ED22EAD81BE81AA164D
:10172000BB065CF43C2D2D2D6C01832F922F3D8147
:101730002E81BE82AD82A32EB22E85012D813E81E7
:10174000021B130B1C012C183D0837FE03C03194FB
:1017500021943108780117FF03C03FEFE31AF30A21
:10176000F594E794C816D9062CF08FEF9FEF9A8373
:10177000898304C0A1E0B0E0BA83A9832D813E81B2
:10178000A216B30624F1D201ED91FC910484F585F3
:10179000E02D2B813C816814790424F44D815E8115
:1017A000B60103C0A6016D817E81C2010995E218D0
:1017B000F308F7FE06C029813A81C20ED31EE00E5F
:1017C000F11E8D819E8101969E838D83D7CF2696B3
:1017D0000FB6F894DEBF0FBECDBFDF91CF911F9142
:1017E0000F91FF90EF90DF90CF90BF90AF909F90C0
:1017F0008F907F906F905F904F903F902F900895C3
:10180000089580E090E008950E947A2A862F642F40
:101810000C944717FC0181850E94EF1621E0892B6B
:1018200009F420E0822F08950F931F93CF93DF9345
:10183000DC015596EC915597E23071F0E330E9F018
:10184000E13079F5FB0114960D90BC91A02DA41BFD
:10185000B50BA21BB30B18C0EC01EC81FD81E61B9C
:10186000F70BBF0161507109EE81FF81DF01A41BFD
:10187000B50BAD01421B530B14C0DA01EC01EE8134
:10188000FF81E61BF70B3197F7FD0DC0EC014E8190
:101890005F81E417F5073CF4AF01BD010E94D31549
:1018A00002C00E943A16DF91CF911F910F910895C7
:1018B0000F931F93DC015596EC915597E23061F040
:1018C000E33009F1E13081F51496ED91FC91159723
:1018D000E41BF50B319723C0DC011496ED91FC91CC
:1018E0001597DF01A61BB70BBD01DC011696ED9124
:1018F000FC911797DF01A41BB50BAD0141505109B5
:10190000621B730B11C0FA01DC0116964D915C91BC
:101910001797DA01A61BB70BBD01621B730BAB0156
:10192000BF010E943A160CC057FD0AC0DC01169692
:10193000ED91FC9117974E175F0714F40E94D31591
:101940001F910F910895AF92BF92CF92EF92FF92A5
:101950000F931F93CF93DF93EC01262F888D998DE2
:10196000009709F040C06A3059F41D861C862C8906
:101970008E859F8538E0239F800D911D112441C0E5
:101980006D3009F4AAC08E898823C1F03C898C850A
:101990009D8546E0349F800D911D11244885598511
:1019A000481759075CF41D861C868E859F8548E084
:1019B000349F800D911D11249F878E87EA88FB88B4
:1019C000088919894E855F856C857D85CC88CE0117
:1019D0000E94B9132C898C859D8536E0239F800D4C
:1019E000911D112442C06A3079F41D861C862C8911
:1019F000FC013696E4918E859F852E9F800D911D6A
:101A000011249F878E8769C06D3009F466C0FC0180
:101A100034963491631708F460C03196E491E61768
:101A200008F45BC0FC01329665917491422F50E03E
:101A3000431B510937E0349F5001359FB00C1124EE
:101A4000A60EB71EF501329634913196E4913323F8
:101A500011F0E1110DC0F5013496E4912C898C85CB
:101A60009D85E29F800D911D11249D878C8735C037
:101A7000F501359644915E89552311F16C89E32F68
:101A8000F0E0E40FF11D47FDFA956E9FD0016F9FC6
:101A9000B00D11244C855D854A0F5B1FE885F985E3
:101AA000E417F5076CF41D861C86FC013696E4915C
:101AB0008E859F856E9F800D911D11249F878E8737
:101AC000EA88FB88088919894E855F856C857D8544
:101AD000CC88CE010E94B913BECF81E090E0DF91A7
:101AE000CF911F910F91FF90EF90CF90BF90AF904B
:101AF00008951F920F920FB60F9211242F933F93C8
:101B00004F935F936F937F938F939F93AF93BF9305
:101B1000EF93FF9383EC94E00E94E606FF91EF9130
:101B2000BF91AF919F918F917F916F915F914F91F5
:101B30003F912F910F900FBE0F901F9018951F92FD
:101B40000F920FB60F9211242F938F939F93EF93C1
:101B5000FF93E091D304F091D4048081E091D90403
:101B6000F091DA0482FD12C090818091DC048F5FD5
:101B70008F732091DD04821751F0E091DC04F0E0D6
:101B8000ED53FB4F958F8093DC0401C08081FF9162
:101B9000EF919F918F912F910F900FBE0F901F90FB
:101BA00018951F920F920FB60F9211242F933F9307
:101BB0004F935F936F937F938F939F93AF93BF9355
:101BC000EF93FF938091B900887F803609F49CC021
:101BD00068F5883209F45BC090F4803109F454C090
:101BE00038F4882309F4F6C0883009F44DC0F6C0F3
:101BF000883109F44CC0803209F45DC0EFC08034F4
:101C000009F468C048F4803309F455C0883309F0FA
:101C1000E5C080938C04D8C0803509F44FC0883566
:101C200009F45DC0883409F0D9C0D6C0883909F4F8
:101C3000C7C0A8F4883709F467C038F4883609F4B7
:101C400063C0803709F460C0C9C0883809F4B8C0DF
:101C5000803909F45FC0803809F0C0C05BC0803BA8
:101C600009F486C038F4803A09F466C0883A09F469
:101C70007FC0B4C0803C09F4A7C0883C09F4A4C06C
:101C8000883B09F48AC0AAC08091690410C0909171
:101C90008B0480918A04981770F5E0918B0481E0A1
:101CA0008E0F80938B04F0E0E659FB4F8081809388
:101CB000BB0085EC86C080938C048EC0E0918B04C1
:101CC00081E08E0F80938B048091BB00F0E0E65999
:101CD000FB4F808390918B0480918A046EC0E091C9
:101CE0008B0481E08E0F80938B048091BB00F0E029
:101CF000E659FB4F808380918D0481116DC081E096
:101D00008093680484EA61C083E080938E0410921B
:101D10008F02CFCF80918F02803208F051C0E091C6
:101D20008F0281E08E0F80938F028091BB00F0E0E4
:101D3000E159FD4F8083BDCF85EC8093BC001092AC
:101D40008E0480918F02803230F4E0918F02F0E0B7
:101D5000E159FD4F108260918F0270E0E091960191
:101D6000F09197018FE692E0099510928F0236C0AC
:101D700084E080938E0410926E0210926D02E091C6
:101D80009801F0919901099580916D02811105C02A
:101D900081E080936D0210924D02E0916E0281E02D
:101DA0008E0F80936E02F0E0E35BFD4F80818093A5
:101DB000BB0090916E0280916D02981708F479CF64
:101DC00085E88093BC000AC085EC8093BC0010922B
:101DD0008E0404C010928C040E948107FF91EF9141
:101DE000BF91AF919F918F917F916F915F914F9133
:101DF0003F912F910F900FBE0F901F901895FC01EF
:101E0000868197819C01295F3F4F37FF02C0295F80
:101E10003F4F83E0359527958A95E1F78481958139
:101E2000289FA001299F500D389F500D112460E07C
:101E300070E0868D978D0C947F2A08958EBD0000EA
:101E40000DB407FEFDCF8EB50895DF92EF92FF929D
:101E50000F931F93CF93DF93EC01D62E072F142FF0
:101E60008C8D9D8D009709F44DC028A131E03093F1
:101E70008F042093B104109290041092B204DC01FC
:101E8000ED91FC910190F081E02D60E00995ED2C41
:101E9000F02E01E0DD24D3948C8D9D8D112349F12A
:101EA0000032B0F00E94E11988A1D0928F04809393
:101EB000B104109290041092B2048C8D9D8DDC01BF
:101EC000ED91FC910190F081E02D60E0099501E039
:101ED0008C8D9D8DF7016491DC01ED91FC91019059
:101EE000F081E02D09950F5F1150F70131967F01C8
:101EF000D3CFDF91CF911F910F91FF90EF90DF90A3
:101F00000C94E119ECA5FDA590818AA980958923FF
:101F10008083E62EF72E112379F1F70184912A8D23
:101F20003B8D232B39F00E941E0F1150C7010196E3
:101F30007C01F1CF28E030E040E8E8A5F9A598A9B8
:101F4000582F542319F05081952B03C05081909540
:101F500095239083EAA5FBA5508199A9952B9083A1
:101F6000EAA5FBA5508199A9909595239083469564
:101F70002150310911F7D9CFDF91CF911F910F91E6
:101F8000FF90EF90DF9008951F93CF93DF93FC01B4
:101F9000848D958D009729F1162FEF0120A131E056
:101FA00030938F042093B104109290041092B204E5
:101FB000DC01ED91FC910190F081E02D60E009954C
:101FC0008C8D9D8DDC01ED91FC910190F081E02DD7
:101FD000612F09958C8D9D8DDF91CF911F910C9470
:101FE000E119A4A5B5A59C9182A9809589238C931C
:101FF000828D938D892B31F0862FDF91CF911F91A8
:102000000C941E0F28E030E080E8A0A5B1A590A9AF
:10201000462F482319F04C91942B03C04C91909576
:1020200094239C93A2A5B3A54C9191A9942B9C9326
:10203000A2A5B3A54C9191A9909594239C938695C4
:102040002150310911F7DF91CF911F9108958CBD77
:102050009DBD08951F93CF93DF93EC01162F8C8DB8
:102060009D8D892BB1F02EA93FA948AD59AD60E0F7
:1020700074E284EF90E00E945B27DA01C901409787
:10208000A109B109B695A795979587958093B80052
:102090000FC08A8D9B8D892B21F08CA99DA90E9450
:1020A0002710EEA5FFA590818BA9809589238083B9
:1020B000111102C066EA01C067EACE010E94C40F96
:1020C0008C8D9D8D892BB1F02AAD3BAD4CAD5DADB6
:1020D00060E074E284EF90E00E945B27DA01C901BE
:1020E0004097A109B109B695A795979587958093D3
:1020F000B80006C0EEA5FFA590818BA9892B80832F
:10210000DF91CF911F910895840F222371F0462F04
:1021100050E0282F082E000C330B241735078CF4C1
:1021200087FF10C08FEF860F089587FD0AC0262F06
:1021300030E0482F082E000C550B4217530794F738
:10214000089580E00895CF92DF92EF92FF920F936F
:102150001F93CF93DF93CDB7DEB729970FB6F894CF
:10216000DEBF0FBECDBF8C01C22ED12CE12CF12CD5
:10217000D42AE62ADC0112968D919C911397892B23
:1021800039F0A701960160E070E0C8010E94FA08EA
:10219000F80182819381049738F0A701960163E0EA
:1021A00070E0C8010E94FA08D80112968D919C91A6
:1021B0001397069738F0A701960165E070E0C80113
:1021C0000E94FA08F80181859285892B09F4BAC02A
:1021D000D8011F96CD90DD90ED90FC9052970E9413
:1021E00083176C157D058E059F0538F40E948317B3
:1021F000F8016787708B818B928B0E948317D801BF
:102200001F96CD90DD90ED90FC905297DC01CB01B4
:102210008C199D09AE09BF098C329140A105B10509
:10222000B8F2F894D80114968D919C9115979A83E1
:1022300089831996ED91FC911A977F01BFEFEB1AF4
:10224000FB0A80818987F80190810388F489E02D59
:10225000D80155968C91992309F430C09081982B20
:1022600098879081809589238F838F818C8388E0E4
:102270008B8358856F8149853B812C8189819A8127
:10228000D701508347FD252F3A952083262F39F01B
:10229000441F00C000006083000000C0F2CF38E09F
:1022A0004D9160830000019761F7D8015496FC932B
:1022B000EE93539749873B832C833AC09081982BA8
:1022C00098879081809589238F838F818E8388E082
:1022D0008D8358856F8149853D812E8189819A81C1
:1022E000D701508347FD252F00C000C0208300C0C8
:1022F00000C000C000C000C060830000262F3A95D7
:1023000041F0441F000000C000C000C000C000C079
:10231000E8CF38E04D9100C0608300C0019709F715
:10232000D8015496FC93EE93539749873D832E83AF
:102330009A83898378940E948317F8016787708B4A
:10234000818B928B29960FB6F894DEBF0FBECDBF5E
:10235000DF91CF911F910F91FF90EF90DF90CF9081
:1023600008950E94E21760939C0170939D018093F1
:102370009E0190939F0181E0809305010895982F1D
:102380008091A201811104C081E09923A1F010C0C5
:10239000813019F42091040109C0823049F4809100
:1023A000A101981739F081E02091A001291719F0B7
:1023B00080E0089581E00895CF92DF92EF92FF923E
:1023C0002091A30130E0B0E0AAE24B2F0B2E000CCD
:1023D000550B4217530794F4A49FF001A59FF00DED
:1023E0001124E856FD4FC080D180E280F380C616EC
:1023F000D706E806F90621F0BF5FE7CF8FEF01C0EF
:102400008B2FFF90EF90DF90CF900895833081F075
:1024100028F4813099F08230A1F008958730A9F036
:102420008830B9F08430D1F4809180008F7D03C072
:10243000809180008F7780938000089584B58F7796
:1024400002C084B58F7D84BD08958091B0008F77E0
:1024500003C08091B0008F7D8093B00008958F926B
:102460009F92AF92BF92EF92FF920F931F93CF93E1
:10247000DF93CDB7DEB7A1970FB6F894DEBF0FBEDE
:10248000CDBF7C01FA01CB0119A2223008F42AE069
:102490008E010F5D1F4F822E912CA12CB12CBF01FC
:1024A000A50194010E945B27F901CA01015011099D
:1024B0006A3014F4605D01C0695CD8016C93232B11
:1024C000242B252B61F7B801C7010E943D1CA19662
:1024D0000FB6F894DEBF0FBECDBFDF91CF911F9135
:1024E0000F91FF90EF90BF90AF909F908F900895C5
:1024F0001F93CF93DF93EC01142F662341F023E069
:1025000030E043E050E060E070E00E94EE171123FD
:1025100061F02CE730E04CE750E06FE770E0CE016F
:10252000DF91CF911F910C94EE17DF91CF911F9106
:102530000895EF92FF920F931F93CF93DF93EC01D7
:1025400082E08C8B81E090E09B8B8A8B998B888BCF
:102550008BE090E09D878C871F861E86FB01019093
:102560000020E9F73197E61BF70BEA30F10510F090
:10257000E9E0F0E08B017B01EE0EFF1E0E151F055A
:1025800039F0F80161918F01CE010E94691BF6CFED
:10259000DF91CF911F910F91FF90EF900895CF920F
:1025A000DF92EF92FF920F931F93CF93DF93EC0193
:1025B000D62EC42EE881F98104A0F5A1E02DEE24E9
:1025C000E394F12C07E110E02BE030E042E150E031
:1025D0006BE070E00995DD20C1F0E881F9812D2DD7
:1025E00030E0CC2021F006A0F7A1E02D06C000A02D
:1025F000F1A1E02DEE24E394F12C06E010E042E19D
:1026000050E06EE070E0CE010995E881F98104A008
:10261000F5A1E02DEE24E394F12C07E110E024E78E
:1026200030E042E150E064E770E0CE010995DF91CF
:10263000CF911F910F91FF90EF90DF90CF90089571
:102640008F929F92AF92CF92DF92EF92FF920F9371
:102650001F93CF93DF93EC014B01F42ED22E0E94F7
:10266000FF0E6A2DCE010E94001C4C2D6E2DCE0156
:102670000E947812B401CE010E9499124D2D6F2D47
:10268000CE010E94CF1281E08C8B81E090E09B8B89
:102690008A8B998B888B1D861C8681E190E09F87B1
:1026A0008E87B801CE010E943D1CCE01DF91CF91F3
:1026B0001F910F91FF90EF90DF90CF90AF909F9080
:1026C0008F900C943D1A6091E9037091EA03809118
:1026D000EB039091EC030895CF93DF932AE2829F5E
:1026E000C0011124EC01C856DD4F0E946313DE01C6
:1026F0006D937D938D939D9384E2EDEEF3E00190D5
:102700000D928A95E1F7E8EEF3E081A588A782A50E
:1027100089A7DF91CF910895DC01EBEBF4E084E031
:1027200080838C9111969C91119712962C911297FF
:1027300013963C91139731832283938384839896D5
:102740008C919897858399968C91868388E087836E
:102750000E941319482F50E0FA01ED54FB4F1082EC
:102760004F5F5F4F552763EB74E083EC94E00C946C
:1027700075062F923F924F925F926F927F928F9247
:102780009F92AF92BF92CF92DF92EF92FF920F9300
:102790001F93CF93DF93CDB7DEB76B970FB6F89447
:1027A000DEBF0FBECDBF9B8F8A8F5B011A01D22E79
:1027B0001F830E833701C982DC0158962D913C910D
:1027C00059972115310509F0E6C018968D919C9115
:1027D0001997681779070CF0CDC11A968D919C91C5
:1027E0001B97481759070CF0C5C18C2C912CFB0185
:1027F00026E0C29EE00DF11D1124FB87EA871E161C
:102800001F060CF0B7C1A40183E0440F551F8A9541
:10281000E1F75D874C87CA01820D931D18161906D2
:102820000CF0A8C157968C91811104C05FEA5D1528
:1028300008F4D394AA8DBB8DED91FC91119702847D
:10284000F385E02DCD010995B5E0DB9EC001112493
:10285000F5013596FF87EE87BB82AA8225019C0190
:102860002A193B09398B288BA101485F5F4F5B8B8D
:102870004A8BE889F989E40DF51DE257FA4F549126
:10288000588761013D822C82888580FF13C0AA8D04
:10289000BB8DED91FC91B981B13031F40484F585A3
:1028A000E02D2E813F8116C00684F785E02DEE8055
:1028B000FF801AC0EE81FF81E615F705F1F0AA8DC1
:1028C000BB8DED91FC91B981B13051F40484F58553
:1028D000E02D9301A601B2018A8D9B8D09950DC053
:1028E0000684F785E02D7301840194014C815D819C
:1028F0006A817B818A8D9B8D0995E885E695E887BD
:10290000FFEFCF1ADF0A2C813D81280D391D3D8351
:102910002C834A895B89C416D50609F0B5CF5FEFD1
:10292000451A550A8A819B81880D991D9B838A834C
:10293000AE85BF854A165B0609F09BCFEE81FF810D
:10294000E615F70509F4F4C0EA8DFB8DA081B1818D
:10295000F981F13079F4B5016B5F7F4F5096ED91BD
:10296000FC915197830128E030E0A1018A8D9B8D75
:102970000995DEC06A857B85681979091E96ED91F7
:10298000FC911F9773010C851D859401A1018A8D0F
:102990009B8D0995CDC0F9013496E491DE1AF901B9
:1029A000329685919491B7E0DB9E800D911D1124A4
:1029B000F901259134913B8B2A8BFC0125913491AF
:1029C0002901FC013296C490319634913E873296AB
:1029D00014913196D4904981423058F0612E012EE5
:1029E000000C77088D2D0D2C000C990B998788878A
:1029F00004C019861886612C712CAA8DBB8DED91AF
:102A0000FC9111970284F385E02DCD010995B981E0
:102A10008B2E912C689CC001699C900D789C900D28
:102A20001124FC01EA0DFB1DFD87EC871A82712C35
:102A3000612CE12F110FFF0B95012E0F3F1F3B87DC
:102A40002A87AC0CB11CA5014E0F5F1F5F8B4E8B0C
:102A5000C1018D0D911DD7FC9A95998F888F9E8508
:102A6000691608F065C0862D90E048855985480FA5
:102A7000591F489D9001499D300D589D300D1124DE
:102A8000D101A20FB31FB98BA88BEC85FD85FD8307
:102A9000EC83AA84BB84DA80FA85DF1A288D398D0D
:102AA000280F391F3D8B2C8B8D2D8A0D4E895F8908
:102AB000A416B506C1F1877041F4C2010196EA89F6
:102AC000FB89E40DF51D74902C0177FE21C0AA8DC1
:102AD000BB8DED91FC91B981B13061F40484F58531
:102AE000E02D2E813F814C895D89B5018A8D9B8DBA
:102AF00009950EC00684F785E02DEE80FF808401E5
:102B00009401488959896C817D818A8D9B8D0995B5
:102B1000770CEFEFAE1ABE0A2C813D81280D391DCE
:102B20003D832C83C1CF3A813C0D3A83639497CF88
:102B3000AA8DBB8DED91FC9111970688F789E02D48
:102B4000CD016B960FB6F894DEBF0FBECDBFDF91FF
:102B5000CF911F910F91FF90EF90DF90CF90BF909A
:102B6000AF909F908F907F906F905F904F903F902D
:102B70002F9009946B960FB6F894DEBF0FBECDBFB1
:102B8000DF91CF911F910F91FF90EF90DF90CF9049
:102B9000BF90AF909F908F907F906F905F904F907D
:102BA0003F902F9008950F931F93CF93DF9377FF5C
:102BB00004C0260F371F60E070E0DC011496CD9151
:102BC000DC911597FB01E20FF31FCE17DF071CF412
:102BD0009E01261B370B121613060CF046C0FA0195
:102BE00057FD3796DF01E3E0B595A795EA95E1F744
:102BF000AC9FF001AD9FF00DBC9FF00D11246E0F46
:102C00007F1FDC015E96ED91FC915F97E60FF71F49
:102C10004770552781E090E001C0880F4A95EAF798
:102C2000482F0130110539F078F002301105E9F430
:102C30002E0F3F1F13C02E0F3F1FE217F307A9F0FF
:102C40008081842B8193F9CF80952E0F3F1FE2174F
:102C5000F30759F0908198239193F9CFE217F30786
:102C600021F0808184278193F9CFDF91CF911F914B
:102C70000F910895EF92FF920F931F93CF93DF93DD
:102C8000EC0177FDA5C0EC80FD806E157F050CF092
:102C90009FC057FF04C0240F351F40E050E08E81D5
:102CA0009F81FA01E20FF31F8E179F071CF49C010E
:102CB000241B350B121613060CF08AC0922F842F9A
:102CC0008695869586958E9DD0018F9DB00D112499
:102CD0006A0F7B1FAE8DBF8DA60FB71F4770B1F176
:102CE00088E0841B482F682F70E0FB01EA57FA4FF9
:102CF000E491281798F4621B71092FEF30E002C0AD
:102D0000359527956A95E2F7E2230130110549F0E0
:102D100078F00230110509F05BC00EC001301105DA
:102D200019F48C91E82B0AC00130110508F049C054
:102D3000E0958C91E82302C08C91E827EC939417DE
:102D400008F446C02C813D81A20FB31FE92FE41B7C
:102D5000E830F8F00230110561F48E2F9C919095C7
:102D60009C932C813D81A20FB31F88508830B0F70F
:102D70000FC081E00115110509F480E081959E2FB7
:102D80008C932C813D81A20FB31F98509830C0F7CF
:102D9000E770EE23E9F0F0E0E258FA4FE4910130F9
:102DA000110539F048F00230110591F48C91E827B3
:102DB00006C08C91E82B03C0E0958C91E823EC933E
:102DC00007C00230110509F4B7CFAE0DBF1DBECF4D
:102DD000DF91CF911F910F91FF90EF900895CF93C6
:102DE000DF93282F30E0F901E659FA4F8491F90179
:102DF000EA5AFA4FD491F901EE5BFA4FC491CC2311
:102E000091F081110E940612EC2FF0E0EE0FFF1FEF
:102E1000E85CFA4FA591B491EC91ED2381E090E04C
:102E200021F480E002C080E090E0DF91CF9108952E
:102E30001F93CF93DF93282F30E0F901E659FA4F23
:102E40008491F901EA5AFA4FD491F901EE5BFA4FF5
:102E5000C491CC23C1F0162F81110E940612EC2FD1
:102E6000F0E0EE0FFF1FE25DFA4FA591B4919FB71E
:102E7000F894111104C08C91D095D82302C0EC9124
:102E8000DE2BDC939FBFDF91CF911F910895CF93ED
:102E9000DF9390E0FC01EA5AFA4F2491FC01EE5BCB
:102EA000FA4F8491882361F190E0880F991FFC010B
:102EB000EC5DFA4FC591D491FC01E25DFA4FA5910A
:102EC000B491611109C09FB7F8948881209582233D
:102ED0008883EC912E230BC0623061F49FB7F89485
:102EE0008881322F309583238883EC912E2B2C936D
:102EF0009FBF06C08FB7F894E8812E2B28838FBF21
:102F0000DF91CF9108953FB7F8948091940290910A
:102F10009502A0919602B091970226B5A89B05C094
:102F20002F3F19F00196A11DB11D3FBFBA2FA92F48
:102F3000982F8827820F911DA11DB11DBC01CD01C5
:102F400042E0660F771F881F991F4A95D1F70895B1
:102F50008F929F92AF92BF92CF92DF92EF92FF92A9
:102F60006B017C010E9483174B015C01C114D104E9
:102F7000E104F104F1F00E948317DC01CB01881910
:102F80009909AA09BB09883E9340A105B10570F3D0
:102F900021E0C21AD108E108F10888EE880E83E02A
:102FA000981EA11CB11CC114D104E104F10419F74D
:102FB000DDCFFF90EF90DF90CF90BF90AF909F90CC
:102FC0008F9008952FB7F8946091900270919102BC
:102FD00080919202909193022FBF08952F923F9279
:102FE0004F925F926F927F928F929F92AF92BF9219
:102FF000CF92DF92EF92FF920F931F93CF93DF93C5
:10300000CDB7DEB762970FB6F894DEBF0FBECDBF67
:103010009A8B898B78876F835A8349833C832B8370
:10302000DC01ED91FC910284F385E02D09958F81FF
:10303000988509811A81801B910BCB80DC80C01A96
:10304000D10A412C512C3201812C912C540134E0B5
:10305000232E312C9C01990F440B550B2D873E8755
:103060004F87588BC6010D2C000CAA0BBB0B898710
:103070009A87AB87BC87C501B40123E030E040E00C
:1030800050E00E943C27E980FA80E20EF31EC30163
:10309000B20126E030E040E050E00E943C27A981E8
:1030A000BA812A0F3B1F8D859E85AF85B889880E12
:1030B000991EAA1EBB1E89859A85AB85BC85480EC4
:1030C000591E6A1E7B1E2E153F052CF49E2D8F2D3A
:1030D0007901292F382F2E193F092F5F3F4FA989DA
:1030E000BA89ED91FC9111970288F389E02D01E0F6
:1030F00010E0A101B701CD010995BFEF2B1A3B0AE2
:1031000007E02016310409F0B6CFC601880F991FD9
:10311000C80ED91E0D2C000CEE08FF08412C512CB6
:1031200032012B813C81C901330FAA0BBB0B0F81EC
:103130001885A801110F660B770B8C019D01041BEC
:10314000150B260B370B0B831C832D833E83C3018A
:10315000B20123E030E040E050E00E943C27AF8025
:10316000B884A20EB31EC701B60126E030E040E0ED
:1031700050E00E943C2789819A81280F391F8B815A
:103180009C81AD81BE81480E591E6A1E7B1E8985B9
:103190009A85AB85BC85C80ED91EEA1EFB1E2A1572
:1031A0003B052CF49A2D8B2D5901292F382F2A19E4
:1031B0003B092F5F3F4FA989BA89ED91FC91119787
:1031C0000288F389E02D01E010E0A101B501CD01F5
:1031D0000995BFEF2B1A3B0A0BE02016310409F0CA
:1031E000B6CFA989BA89ED91FC9111970688F78924
:1031F000E02DCD0162960FB6F894DEBF0FBECDBFB5
:10320000DF91CF911F910F91FF90EF90DF90CF90C2
:10321000BF90AF909F908F907F906F905F904F90F6
:103220003F902F900994CF93DF93CBEBD4E051E004
:10323000580F31E091E0E0E081E03517F9F0499175
:1032400021E0280F411106C0F0E0ED54FB4F9083C0
:10325000E82F12C0A82FB0E0AD54BB4F4C939F5F36
:103260009F3F19F03F5F822FE8CFF0E0ED54FB4F16
:103270009083E22F22E0280F91E0F4CFF0E0ED54AC
:10328000FB4F9083DF91CF9108953F924F925F92D1
:103290006F927F928F929F92AF92BF92CF92DF9266
:1032A000EF92FF920F931F93CF93DF93CDB7DEB7CB
:1032B00028970FB6F894DEBF0FBECDBF6C017E839A
:1032C0006D832A013901DC01ED91FC910284F385C3
:1032D000E02D0995C801079697FD07969C0193E09C
:1032E000359527959A95E1F73A832983812C912C7E
:1032F000A12CB12C312CC501840D951D9C838B8391
:10330000AE14BF040CF03EC018861F82AF81B88592
:10331000A017B1077CF5CD0187709927892B11F093
:10332000330C0EC0EF81F885F7FD379683E0F595F5
:10333000E7958A95E1F7E80DF91DE60DF71D349044
:1033400037FE12C0D601ED91FC910484F585E02D85
:1033500021E030E04B815C816D817E818F81988599
:10336000680F791FC6010995AF81B8851196B88796
:10337000AF83CCCFBFEFAB1ABB0A29813A81820E53
:10338000931EB9CFD601ED91FC910688F789E02D07
:10339000C60128960FB6F894DEBF0FBECDBFDF91F1
:1033A000CF911F910F91FF90EF90DF90CF90BF9042
:1033B000AF909F908F907F906F905F904F903F90D5
:1033C00009943091B204313208F04BC080918E04E0
:1033D0008111FCCF9091B10422E020938E0421E072
:1033E00020938D042FEF20938C0410928B04309344
:1033F0008A04E1E9F4E0AAE6B4E020E0321721F023
:1034000041914D932F5FFACF109269042091690486
:10341000990F922B9093690490916804913061F414
:1034200010926804909169049093BB009091BC0045
:1034300093FDF8CF95EC01C095EE9093BC00909170
:103440008E049230E1F390918C049F3F79F080914B
:103450008C04803241F080918C04803331F084E020
:1034600005C081E003C082E001C083E010929004B7
:103470001092B20410928F040895CF92DF92EF92CF
:10348000FF920F931F93CF93DF93EC018C8D9D8D53
:10349000892BB1F02EA93FA948AD59AD60E074E287
:1034A00084EF90E00E945B27DA01C9014097A109EF
:1034B000B109B695A795979587958093B8000FC0E9
:1034C0008A8D9B8D892B21F08CA99DA90E942710A4
:1034D000EEA5FFA590818BA980958923808345E087
:1034E0006EE87CE0CE010E94250F6C816150CE0118
:1034F0000E94C40F2E813F81C901079697FD079650
:1035000033E0959587953A95E1F72C813D81829F2F
:103510007001839FF00C929FF00C11240E8D1F8D73
:103520008C8D9D8DE00EF11E009709F446C028A1F8
:1035300031E030938F042093B104109290041092E4
:10354000B204DC01ED91FC910190F081E02D60E48A
:103550000995DD24D394CC24C3948C8D9D8DE016E5
:10356000F10641F1BFE1BD15B8F40E94E11988A14F
:10357000C0928F048093B104109290041092B20410
:103580008C8D9D8DDC01ED91FC910190F081E02D01
:1035900060E40995DD24D3948C8D9D8DF8016191B3
:1035A0008F01DC01ED91FC910190F081E02D0995F6
:1035B000D394D3CF0E94E11935C0ECA5FDA590812D
:1035C0008AA9892B8083E016F10661F1F8018191C7
:1035D0008F012A8D3B8D232B19F00E941E0FF3CFF4
:1035E00028E030E040E8E8A5F9A598A9582F542331
:1035F00019F05081952B03C05081909595239083AD
:10360000EAA5FBA5508199A9952B9083EAA5FBA576
:10361000508199A990959523908346952150310921
:1036200011F7D1CF8C8D9D8D892BB1F02AAD3BAD9B
:103630004CAD5DAD60E074E284EF90E00E945B27EA
:10364000DA01C9014097A109B109B695A7959795E7
:1036500087958093B80014C0EEA5FFA590818BA933
:10366000892B80838A8D9B8D892B51F0DF91CF919F
:103670001F910F91FF90EF90DF90CF900C941D0F52
:10368000DF91CF911F910F91FF90EF90DF90CF903E
:103690000895EF92FF920F931F93CF93DF93EC0166
:1036A0000E94FF0E80E2E82EF12C00E810E02EE8E8
:1036B0003AE040E050E060E070E0CE010E94451941
:1036C000CE01DF91CF911F910F91FF90EF900C945D
:1036D0003D1ADC01ED91FC910190F081E02D0994FF
:1036E0008F929F92AF92BF92CF92DF92EF92FF9212
:1036F0000F931F93CF93DF93EC015B01942E822EE7
:1037000081E08C8B81E090E09B8B8A8B998B888BFE
:10371000C02ED12C8BE090E09D878C87DF86CE86F3
:10372000FB0101900020E9F73197E61BF70BE83029
:10373000F10508F0E7E08501EE2EF12CC8018A19A9
:103740009B098E159F0538F4F80161918F01CE0118
:103750000E94691BF3CF5601F6E0AF0EB11CE88161
:10376000F98104A0F5A1E02DEE24E394F12C85016C
:1037700028E330E0A60168E370E0CE010995292D29
:1037800030E0A7E3B0E00E947D2724E630E040E08F
:1037900050E00E943C272223B1F0E881F98130E01B
:1037A000882021F006A0F7A1E02D06C000A0F1A11D
:1037B000E02DEE24E394F12C07E010E0A6016BE38A
:1037C00070E0CE010995E881F98104A0F5A1E02D12
:1037D000EE24E394F12C850124E730E0A60164E7B0
:1037E00070E0CE010995DF91CF911F910F91FF906D
:1037F000EF90DF90CF90BF90AF909F908F90089503
:103800009F92AF92BF92CF92DF92EF92FF920F936F
:103810001F93CF93DF935C01962E98E3D92ED0E0CF
:103820002EE1C22E9D1611F0C2E001C0C4E02C2F83
:1038300030E08C2F86954C2D481B50E06D2D70E0AC
:10384000D501ED91FC9100A0F1A1E02DEE24E394CF
:10385000F12C8901C5010995CC5FDC0EDF5FD33007
:1038600009F7DF91CF911F910F91FF90EF90DF90BB
:10387000CF90BF90AF909F9008956115710579F03A
:10388000FB0101900020E9F73197AF01461B570B70
:10389000DC01ED91FC910280F381E02D099480E040
:1038A00090E008951F920F920FB60F9211242F935C
:1038B0003F938F939F93AF93BF938091900290918A
:1038C0009102A0919202B091930230918E0523E073
:1038D000230F2D3720F40196A11DB11D05C026E848
:1038E000230F0296A11DB11D20938E058093900297
:1038F00090939102A0939202B093930280919402CC
:1039000090919502A0919602B09197020196A11D07
:10391000B11D8093940290939502A0939602B09368
:103920009702BF91AF919F918F913F912F910F90EF
:103930000FBE0F901F901895789484B5826084BD57
:1039400084B5816084BD85B5826085BD85B58160A3
:1039500085BD80916E00816080936E001092810021
:1039600080918100826080938100809181008160DC
:10397000809381008091800081608093800080919D
:10398000B10084608093B1008091B0008160809329
:10399000B00080917A00846080937A0080917A00F0
:1039A000826080937A0080917A00816080937A00AF
:1039B00080917A00806880937A001092C100E09133
:1039C000D304F091D40412E01083E091CF04F0917D
:1039D000D0041082E091D104F091D20480E1808380
:1039E0001092DB04E091D704F091D80486E0808344
:1039F000E091D504F091D604808180618083E091CC
:103A0000D504F091D604808188608083E091D5044C
:103A1000F091D604808180688083E091D504F09194
:103A2000D60480818F7D808386E190E00E945929B1
:103A3000EC01198218861F86188A198A1A8A81E071
:103A40008E878B871C861D87888388E190E09D8305
:103A50008C830E9459299A878987009751F028E121
:103A6000DC011D922A95E9F788E090E09B838A8328
:103A700004C01D821C821B821A828CE090E09F830E
:103A80008E838981882341F061E08CE00E94471792
:103A900060E08CE00E941817EEE4F5E0E491F0E0BD
:103AA000EE0FFF1FE25DFA4F859194919C8B8B8BFB
:103AB000E2E6F5E0E491ED8BD093AA01C093A90171
:103AC0008E819F8197FD07C061E00E94471760E0EB
:103AD0008E810E94181711E019838EE390E00E94F6
:103AE0005929EC011B821A8220E830E03D832C83A7
:103AF00080E290E09F838E83398728879B878A871F
:103B00001D8A1D861C861F861E861C8B8FEF9FEFCD
:103B10009B8B8A8B998B888B1E8B1F8A198E188E94
:103B200080E191E0998388831B8E1A8E80E695E070
:103B30009D8F8C8F8FEF8BA38CA38DA38EA384E09E
:103B40008FA380E58CAB1DAA80E89AE1A6E0B0E0E7
:103B50008EAB9FABA8AFB9AF80EA96E8A1E0B0E02A
:103B60008AAF9BAFACAFBDAF80E092E00E94592915
:103B70009F8F8E8F892B09F4F7C0CE010E94FF0E14
:103B80008E819F816C817D81813291050CF482C28E
:103B9000AC014054510957FF02C04F5F5F4F55952C
:103BA00047956255710977FF02C06F5F7F4F75952A
:103BB000679590E4E92EF12C02E510E024E632E06E
:103BC000CE010E94451982E089A38C8D9D8D892BA1
:103BD00009F479C28CE388A310929B0110929A0198
:103BE000109290041092B20410928E0481E080939F
:103BF0008D041092680461E082E10E94181761E070
:103C000083E10E9418178091B9008E7F8093B900DC
:103C10008091B9008D7F8093B90088E48093B800CB
:103C200085E48093BC0083EB97E0909399018093A7
:103C3000980184EB97E090939701809396018FA170
:103C400087FD1BC061E00E94471761E08FA10E94C1
:103C5000181761E070E080E090E00E94A81760E033
:103C60008FA10E9418176AE070E080E090E00E9447
:103C7000A81761E08FA10E9418178C8D9D8D892B4C
:103C800009F4CAC22EA93FA948AD59AD60E074E25B
:103C900084EF90E00E945B27DA01C9014097A109F7
:103CA000B109B695A795979587958093B80044E09C
:103CB00060E870E0CE010E94250F6E816150CE0158
:103CC0000E94C40F44E06CE770E0CE010E94250F13
:103CD00089A1813009F0B0C260E1CE010E94C40F19
:103CE00044E068E770E0CE010E94250F8C819D8141
:103CF0008038910509F0B3C28E819F818032910591
:103D000009F09CC244E064E770E0CE010E94250FF8
:103D100069EDCE010E94C40F89A1813009F0B8C2BB
:103D200062E2CE010E94C40F46E068E670E0CE0178
:103D30000E94250F8C8D9D8D892B09F4ABC22AAD75
:103D40003BAD4CAD5DAD60E074E284EF90E00E946D
:103D50005B27DA01C9014097A109B109B695A7957A
:103D6000979587958093B800E881F981008CF18D53
:103D7000E02D62E0CE010995D093A701C093A60182
:103D8000CE010E94491B62E081E10E94471781E158
:103D900080938505109284058CE795E00E940A0CBB
:103DA000882329F0809184058360809384050E9494
:103DB000E21760937E0570937F0580938005909352
:103DC000810562E080916D050E94471762E0809155
:103DD0006E050E944717CAE2BB24B39412E0712E0D
:103DE00008EE202E03E0302E44244394512C83EC23
:103DF00094E00E94D0061816190664F583EC94E04E
:103E00000E94AE064091AC01403821F1882309F4AC
:103E10004FC2E42FF0E0E355FE4F80834F5F4093A5
:103E2000AC01E5CF7F3F09F05DC26E2F641708F04B
:103E300063C2862F90E0FC01E355FE4F7081870F2F
:103E4000911D281739070CF03BC2713009F438C2B4
:103E50001092AC0180916E050E94EF168C0180914A
:103E60006D050E94EF16E0916C05EF70000F111FB9
:103E7000802B24E0E29FF0011124E85CFE4FE80F64
:103E8000F11D808180936C05807309F49DC041E031
:103E9000803121F0803209F040E041956091A3012A
:103EA000662309F402C38091AB01813009F4FDC29D
:103EB0008091A20181110FC0842F880F880F480FB5
:103EC0008091C002480F45360CF044E647FD40E0C3
:103ED0004093C0029AC0813049F58091A5018111BB
:103EE00009C020910301809104010E9484108093F5
:103EF0000401DBC2813009F0D8C220910401022EF6
:103F0000000C330BC29FF001C39FF00D1124E85643
:103F1000FD4F842F880F880F480F80A5480F453626
:103F20000CF044E647FD40E040A784C0823009F031
:103F3000BCC28091A801811109C020910301809128
:103F4000A1010E9484108093A101AFC2813049F485
:103F5000209103018091A0010E9484108093A00110
:103F6000A4C2823009F0A1C22091A101022E000C4E
:103F7000330B842F880F880F480FC29FF001C39F17
:103F8000F00D1124E856FD4F80A5840F85360CF006
:103F900084E687FD80E080A75091A0016C2F560336
:103FA000F0011124E856FD4F80A5841B85360CF0E6
:103FB00084E687FD80E080A7C29FC001C39F900D6B
:103FC000112488569D4F5DC08091790590917A05A6
:103FD0008130910509F465C28230910509F0CDC6A2
:103FE0008091A301882309F460C28091AB018130E4
:103FF00009F45BC28091A20181110AC081E0909115
:10400000C102911180E08093C10288E992E019C059
:104010008130D1F420910401022E000C330BC29F99
:10402000F001C39FF00D1124E856FD4F91A59111A9
:1040300080E081A7C29FC001C39F900D11248856C4
:104040009D4F0E948C1331C2823009F02EC28091A4
:10405000A801823009F029C22091A1016C2F26030A
:10406000C001112488569D4FE2E3DC019896EC9341
:104070002091A0012603F0011124E856FD4F22E310
:1040800020A70E948C132091A0013C2F2303C00184
:104090001124D5CFAC014052510957FF02C04F5FE8
:1040A0005F4F559547956357710977FF02C06F5F62
:1040B0007F4F7595679510E2E12EF12C03E710E034
:1040C00024E830E07DCD61E08DA10E94471761E0DA
:1040D0008EA10E9447178DA1082E000C990BFC01A0
:1040E000EE5BFA4FE491F0E0EE0FFF1FE25DFA4F56
:1040F000259134913DA72CA7FC01EA5AFA4FE4918F
:10410000EAAB8EA1082E000C990BFC01EE5BFA4F76
:10411000E491F0E0EE0FFF1FE25DFA4FA591B4913C
:10412000BFA7AEA7FC01EA5AFA4FE491EBAB8C9122
:10413000E82BEC938A8D9B8D892B09F434C01FB733
:10414000F8948091A401811127C0ECE4F5E08491FA
:10415000E0E6F5E09491E82FF0E0EE0FFF1FEC5D54
:10416000FA4FA591B491EC91E92321F461E08AE042
:104170000E94181761E08AE00E9447178CB58061A1
:104180008CBD8CB580648CBD61E08DE00E944717CA
:1041900061E08BE00E9447178091A4018F5F8093BC
:1041A000A4011FBF4CCD61E08BA10E94471761E0C5
:1041B0008CA10E9447178BA1082E000C990BFC01C3
:1041C000EE5BFA4FE491F0E0EE0FFF1FE25DFA4F75
:1041D0002591349139A728A7FC01EA5AFA4FE491B6
:1041E000E8AB8CA1082E000C990BFC01EE5BFA4F9A
:1041F000E491F0E0EE0FFF1FE25DFA4FA591B4915C
:10420000BBA7AAA7FC01EA5AFA4FE491E9AB8C914B
:10421000E095E823EC9313CD8A8D9B8D892B21F0BB
:104220008CA99DA90E942710EEA5FFA590818BA9BE
:104230008095892380833BCD64E14FCD8034910507
:1042400009F066CD43E061E770E0CE010E94250FE2
:1042500089A1813011F46FE917C06FEC15C0803669
:10426000910509F055CD8E819F81409709F050CD81
:1042700043E06EE670E0CE010E94250F89A18130F7
:1042800011F460E101C06FEACE010E94C40F40CD7D
:1042900061EF47CDEEA5FFA590818BA9892B808387
:1042A0008A8D9B8D892B09F45FCD0E941D0F5CCDFB
:1042B000442309F4CDCD50E060E0242F30E0B6CDAA
:1042C00081E0E62FE80F871708F0ACCDA52FB0E00E
:1042D000A851BC4FF0E0E355FE4F90819C938F5F57
:1042E0005F5FEFCF4E1709F4A0CDA52FB0E0A85126
:1042F000BC4F1C925F5F99CD552309F4A9CDE52FE2
:10430000F0E0E951FC4F80818513A2CD8091E80354
:10431000811117C0B092BB047092BC0482E00E946D
:104320001319482F50E0FA01ED54FB4F10824F5FF4
:104330005F4F552763EB74E083EC94E00E947506B1
:1043400087CD823039F51091A301183009F480CD62
:104350000E9463130E94DC11D82F8F3F51F4812FEC
:104360000E946C13D091A30181E08D0F8093A30173
:1043700002C00E946C1380910001882309F468CD6B
:10438000D09304018091A201813009F087C010927E
:10439000A50184C0833009F053C0D091A301DD236F
:1043A00009F456CD0E9463130E94DC118F3F09F47B
:1043B0004FCD982F4D2F50E041505109292F30E01B
:1043C00024173507BCF4C29FD001C39FB00D112440
:1043D000A856BD4F2F5F3F4FC29FF001C39FF00D06
:1043E0001124E856FD4F2C2F01900D922A95E1F7EC
:1043F0009F5FE4CFD150D093A3010E94BF11082F3B
:1044000010910301212F40E06D2F809104010E9443
:10441000841080930401212F40E06D2F8091A10131
:104420000E9484108093A101212F40E06D2F809184
:10443000A0010E9484108093A0010111A3CF08CD98
:104440008430C9F40E9463130E94DC118F3F09F489
:10445000FFCCBAE28B9FF0011124E856FD4F9091FA
:10446000ED0390A79091EE0391A70E94BF118823BE
:1044700009F4EECC13C0853009F0EACC8091E90351
:10448000809300018091EA03809301018091EB0306
:10449000809302018091EC03809303010E94B1118B
:1044A000D7CC8091A301811146C40E94B1118091A3
:1044B00001018823E9F10E94E21700919C0110910B
:1044C0009D0120919E0130919F01DC01CB01801B59
:1044D000910BA20BB30B2091AB01211113C02091C2
:1044E0000201229D8001239D100D1124012E000C3C
:1044F000220B330B081719072A073B07C8F4B092A1
:10450000AB0114C02130A1F420910201229D800151
:10451000239D100D1124012E000C220B330B80174C
:104520009107A207B30720F41092AB01B0920501E6
:104530008091AC01803811F41092AC018091840517
:104540008B7F809384058CE795E00E940A0CD82F1E
:104550008091840586958170D81781F00E94E217BA
:1045600060937E0570937F0580938005909381050D
:104570008091840587258093840552C00E94E217AC
:1045800000917E0510917F05209180053091810575
:10459000AB01BC01401B510B620B730B8091820578
:1045A00090918305A0E0B0E0481759076A077B07A0
:1045B000B8F1809184058170D81791F10E94E217BB
:1045C00060937E0570937F058093800590938105AD
:1045D000809184058B258460809384050E94E21776
:1045E00000918605109187052091880530918905F5
:1045F000DC01CB01801B910BA20BB30B80938A05CE
:1046000090938B05A0938C05B0938D050E94E217C3
:10461000609386057093870580938805909389053C
:1046200080918405982F947020917B05222331F08E
:1046300080FDBBC3992309F4B8C304C0282F25709B
:10464000253009F58091770590917805009779F4E8
:104650000E94E21760936F05709370058093710557
:1046600090937205509278054092770526C082306B
:10467000910519F5109278051092770590937A05B7
:104680008093790571C080FD18C09923B1F08091A5
:10469000770590917805019781F40E94E217609365
:1046A0006F0570937005809371059093720582E099
:1046B00090E09093780580937705809177059091AD
:1046C00078058130910531F50E94E21700916F0560
:1046D000109170052091710530917205AB01BC01FC
:1046E000401B510B620B730B809175059091760501
:1046F000A0E0B0E0481759076A077B0788F11092DD
:10470000780510927705A3E0B0E0B0937A05A09306
:1047100079052AC0029721F50E94E21700916F05E2
:10472000109170052091710530917205AB01BC01AB
:10473000401B510B620B730B8091730590917405B4
:10474000A0E0B0E0481759076A077B0748F01092CD
:1047500078051092770550927A054092790504C049
:1047600010927A051092790580910501882309F449
:10477000DFC28091AB01813041F40091A60110911C
:10478000A701C8010E94FF0E4FC06091A3016111F3
:1047900007C08091A6019091A7010E94491B2EC2DB
:1047A000D091A201D11142C0FF24F3948091C102A3
:1047B000811101C0F12CD091C0020091A60110918D
:1047C000A701C8010E94FF0E60E0C8010E94001C02
:1047D0006DE871E0C8010E949912DA3038F0D436E1
:1047E00040F0D43641F4F1E56F2E05C0BBE66B2EE8
:1047F00002C0ADE56A2EF801748A538A428A518A52
:10480000408A862D90E095878487178616864D2FDF
:1048100050E060E070E02AE0C8010E942F124F2DA6
:104820006D2FC8010E94CF12C801E6C1D13009F036
:104830000AC11091A50111114BC090910301809103
:104840000401DD24D394992311F0623078F48111AE
:1048500001C0D12C992311F0623040F470E0681B44
:104860007109D1E0623071050CF4D0E0082E000C23
:10487000990BC89FF001C99FF00D1124E856FD4F18
:10488000CC24C39421A5211101C0C12CC89F700163
:10489000C99FF00C1124F701E856FD4FA0A4009128
:1048A000A6011091A701C8010E94FF0E61E0C80196
:1048B0000E94001C4D2F6D2DC8010E947812B70177
:1048C00064567D4FC8010E9499124C2D6A2DA9CFC4
:1048D000113009F093C1209104013C2F2303C00142
:1048E0001124FC01E856FD4FA1A4D0A5DC01A4567B
:1048F000BD4F7D01C090A601D090A701C6010E94C6
:10490000FF0E61E0C6010E94001CF601148B538A61
:10491000428A518A408A2BE030E035872487178607
:104920001686F70101900020E9F73197EE19FF098B
:10493000E331F10508F0E2E147010E2F10E0C40178
:104940008E199F098017910738F4D4016D914D019C
:10495000C6010E94691BF3CFD601ED91FC9104A022
:10496000F5A1E02DEE24E394F12C08E110E02BE01A
:1049700030E04BE050E06BE070E0C60109958D2F10
:1049800090E0A0E0B0E0BC01CD01E6E0660F771F4B
:10499000881F991FEA95D1F724E630E040E050E007
:1049A0000E943C272223C1F0D601ED91FC9130E01A
:1049B000AA2021F006A0F7A1E02D06C000A0F1A1D9
:1049C000E02DEE24E394F12C0EE010E04BE050E0FB
:1049D0006EE070E0C6010995D601ED91FC9104A04E
:1049E000F5A1E02DEE24E394F12C08E110E021E59F
:1049F00030E04BE050E061E570E0C6010995DA3047
:104A000030F0D43630F0D43631F081E505C08BE695
:104A100003C081E601C087E5F601748A538A428AA1
:104A2000518A408A90E0958784872BE030E0378771
:104A300026874D2F50E060E070E02AE0C6010E941A
:104A40002F12C601D9C0D23009F0D8C03091A801C8
:104A500031113AC0909103018091A10141E0992365
:104A600011F0623080F4811101C040E0992311F00F
:104A7000623048F470E0681B710931E06230710502
:104A80001CF430E001C031E0082E000C990BC89FE7
:104A9000F001C99FF00D1124E856FD4F21E051A50A
:104AA000511101C020E0C89FB001C99F700D1124B1
:104AB000FB01E856FD4F64567D4F92E0A92EC32EB0
:104AC000E42E01E911E03AC0313009F03FC0909185
:104AD00003018091A00141E0992311F0623078F444
:104AE000811101C040E0992311F0623040F470E080
:104AF000681B710931E0623071050CF430E0082E5A
:104B0000000C990BC89FF001C99FF00D1124E856C5
:104B1000FD4F21E051A5511101C020E0C89FB00117
:104B2000C99F700D1124FB01E856FD4F64567D4F5F
:104B300082E0A82EC32EE42E03E911E040A5809167
:104B4000A6019091A7010E94201358C0323009F0AD
:104B500055C02091A001022E000C330BC29FF00122
:104B6000C39FF00D1124E856FD4FD1E081A58111BE
:104B700001C0D0E08091A101082E000C990BC89FC4
:104B8000F001C99FF00D1124E856FD4FAA24A3940B
:104B900041A5411101C0A12CC29F6001C39FD00C4F
:104BA0001124F601E856FD4F90A4C89F8001C99FCB
:104BB000100D1124F801E856FD4F80A4E090A601E5
:104BC000F090A701C7010E94FF0E62E0C7010E949A
:104BD000001CB80164567D4F04E02A2D482DC70102
:104BE0000E94701BB60164567D4F01E12D2F492DA7
:104BF000C7010E94701BC7010E943D1A8091AB0142
:104C0000813021F420E040E060E03DC08091A301CC
:104C1000811104C020E840E860E835C08091A2011D
:104C2000811103C06091C0020BC08130B1F52091A9
:104C300004013C2F2303F0011124E856FD4F60A529
:104C4000062E000C770B880B990B0E94312823E36A
:104C500033E343E250E40E94C2286B017C0120E070
:104C600030E0A9010E94BD2820E030E040E05FE391
:104C700087FF0EC0C701B6010E948C270E94F9274A
:104C8000462F4095262F8091A9019091AA014CC0F2
:104C9000C701B6010E948D27F1CF823009F046C0CE
:104CA0008091A8010091A9011091AA01811107C06A
:104CB0002091A1016C2F2603F001112409C081303D
:104CC00009F0A8CF2091A0013C2F2303F00111246B
:104CD000E856FD4F60A5062E000C770B880B990B4C
:104CE0000E94312823E333E343E250E40E94C228C8
:104CF0006B017C0120E030E0A9010E94BD2820E08A
:104D000030E040E05FE387FD05C0C701B6010E94C7
:104D10008D2704C0C701B6010E948C270E94F92785
:104D2000462F4095262FC8010E94A310109205011E
:104D30000E9477075CC88091AB01813009F4B5CB44
:104D40008091A201813059F48091A5018F5F82305A
:104D500019F08093A501A9CB1092A501A6CB8230B2
:104D600009F0A3CB8091A8018F5F833019F0809365
:104D7000A8019BCB1092A80198CB039709F097CB81
:104D80008091A301882309F490CB8091AB018130FD
:104D900009F48BCB8091A2018F5F833019F080934F
:104DA000A20183CB1092A20180CB8570853009F4DB
:104DB0006ECC83CCE3ECF4E01382128288EE93E0B5
:104DC000A0E0B0E084839583A683B78329E531E032
:104DD0003183208325EC30E03587248724EC30E0D4
:104DE0003787268720EC30E0318B208B21EC30E0B8
:104DF000338B228B22EC30E0358B248B26EC30E099
:104E0000378B268B118E128E138E148EE0E6F5E012
:104E10001382128284839583A683B78387E791E008
:104E200091838083EFE6F5E089E891E096878587B6
:104E30001786108A118A128A158A168A83E290E0F0
:104E4000948B838B86E990E09583848384EF91E053
:104E50009783868381E08487108211821282138275
:104E60001186108613861286ECE6F5E080E18183D8
:104E70008FE0828310820895052E97FB1EF4009424
:104E80000E94532757FD07D00E945B2707FC03D0E1
:104E90004EF40C94532750954095309521953F4FF3
:104EA0004F4F5F4F089590958095709561957F4F16
:104EB0008F4F9F4F0895A1E21A2EAA1BBB1BFD0125
:104EC0000DC0AA1FBB1FEE1FFF1FA217B307E407E9
:104ED000F50720F0A21BB30BE40BF50B661F771F41
:104EE000881F991F1A9469F7609570958095909521
:104EF0009B01AC01BD01CF010895A29FB001B39FFA
:104F0000C001A39F700D811D1124911DB29F700DD2
:104F1000811D1124911D08955058BB27AA270E9476
:104F2000A4270C9483280E94752838F00E947C28BE
:104F300020F039F49F3F19F426F40C9472280EF4F3
:104F4000E095E7FB0C946C28E92F0E94942858F315
:104F5000BA17620773078407950720F079F4A6F55E
:104F60000C94B6280EF4E0950B2EBA2FA02D0B0151
:104F7000B90190010C01CA01A0011124FF27591B9E
:104F800099F0593F50F4503E68F11A16F040A22FA4
:104F9000232F342F4427585FF3CF46953795279515
:104FA000A795F0405395C9F77EF41F16BA0B620B14
:104FB000730B840BBAF09150A1F0FF0FBB1F661F5B
:104FC000771F881FC2F70EC0BA0F621F731F841F9E
:104FD00048F4879577956795B795F7959E3F08F0C4
:104FE000B0CF9395880F08F09927EE0F9795879586
:104FF00008950E9400286894B1110C94B728089570
:105000000E949C2888F09F5798F0B92F9927B75194
:10501000B0F0E1F0660F771F881F991F1AF0BA955C
:10502000C9F714C0B13091F00E94B628B1E00895DC
:105030000C94B628672F782F8827B85F39F0B93FCE
:10504000CCF3869577956795B395D9F73EF490950F
:105050008095709561957F4F8F4F9F4F0895E8948D
:1050600009C097FB3EF490958095709561957F4FB0
:105070008F4F9F4F9923A9F0F92F96E9BB2793955E
:10508000F695879577956795B795F111F8CFFAF46E
:10509000BB0F11F460FF1BC06F5F7F4F8F4F9F4F9F
:1050A00016C0882311F096E911C0772321F09EE8FD
:1050B000872F762F05C0662371F096E8862F70E063
:1050C00060E02AF09A95660F771F881FDAF7880F3D
:1050D0009695879597F9089597F99F6780E870E00E
:1050E00060E008959FEF80EC089500240A9416165E
:1050F000170618060906089500240A9412161306C6
:10510000140605060895092E0394000C11F4882353
:1051100052F0BB0F40F4BF2B11F460FF04C06F5F6F
:105120007F4F8F4F9F4F089557FD9058440F551F45
:1051300059F05F3F71F04795880F97FB991F61F019
:105140009F3F79F087950895121613061406551F90
:10515000F2CF4695F1DF08C0161617061806991FFC
:10516000F1CF86957105610508940895E894BB27F1
:1051700066277727CB0197F908950E942F2908F415
:105180008FEF08950E94D5280C9483280E947528DB
:1051900038F00E947C2820F0952311F00C946C28A4
:1051A0000C94722811240C94B7280E94942870F350
:1051B000959FC1F3950F50E0551F629FF001729FBC
:1051C000BB27F00DB11D639FAA27F00DB11DAA1FCB
:1051D000649F6627B00DA11D661F829F2227B00D18
:1051E000A11D621F739FB00DA11D621F839FA00DA3
:1051F000611D221F749F3327A00D611D231F849FF3
:10520000600D211D822F762F6A2F11249F57504049
:105210009AF0F1F088234AF0EE0FFF1FBB1F661FC4
:10522000771F881F91505040A9F79E3F510580F08D
:105230000C946C280C94B7285F3FE4F3983ED4F3A9
:10524000869577956795B795F795E7959F5FC1F731
:10525000FE2B880F911D9695879597F90895990FC4
:105260000008550FAA0BE0E8FEEF16161706E80730
:10527000F907C0F012161306E407F50798F0621B51
:10528000730B840B950B39F40A2661F0232B242B26
:10529000252B21F408950A2609F4A140A6958FEF45
:1052A000811D811D0895EE0FFF1F0590F491E02DE3
:1052B00009940F931F93CF93DF938230910510F4DD
:1052C00082E090E0E0919105F091920520E030E0DD
:1052D000A0E0B0E0309719F1408151810281138143
:1052E00048175907C8F08417950769F4109731F0EB
:1052F00012960C93129713961C9327C00093910556
:105300001093920522C02115310519F04217530759
:1053100018F49A01BD01EF01DF01F801DBCF21157F
:105320003105F9F0281B390B2430310580F48A81CE
:105330009B816115710521F0FB019383828304C079
:105340009093920580939105FE01329644C0FE0130
:10535000E20FF31F819391932250310939832883FF
:105360003AC020918F0530919005232B41F4209174
:105370000801309109013093900520938F05209109
:105380000601309107012115310541F42DB73EB7D3
:1053900040910A0150910B01241B350BE0918F05C0
:1053A000F0919005E217F307A0F42E1B3F0B28178E
:1053B000390778F0AC014E5F5F4F2417350748F08E
:1053C0004E0F5F1F5093900540938F0581939193EB
:1053D00002C0E0E0F0E0CF01DF91CF911F910F918B
:1053E0000895CF93DF93009709F481C0FC013297B1
:1053F00013821282A0919105B0919205109781F4C9
:1054000020813181820F931F20918F05309190056B
:105410002817390751F5F0939005E0938F0567C081
:10542000ED0120E030E0CE17DF0740F44A815B81D8
:105430009E0141155105F1F0EA01F5CFD383C283F6
:1054400040815181840F951FC817D90759F488816D
:105450009981840F951F0296918380838A819B8115
:10546000938382832115310529F4F0939205E0930B
:1054700091053DC0E901FB83EA8349915991C40F2D
:10548000D51FEC17FD0761F480819181840F951F72
:105490000296E90199838883828193819B838A8321
:1054A000E0E0F0E012968D919C911397009719F02F
:1054B000FD01DC01F7CF8D919C9111979D012E5F2D
:1054C0003F4F820F931F20918F0530919005281731
:1054D000390769F4309729F41092920510929105DA
:1054E00002C013821282B0939005A0938F05DF91C2
:1054F000CF91089581E090E0F8940C94862ADC0125
:1055000001C06D9341505040E0F70895F894FFCFEB
:1055100001010501FF01000093058000000000006B
:10552000A30C7506010C000C3D08B507470B1F0BBB
:105530003B0B2F0B4E0BB5076A092A10140C580CA5
:10554000680A4B0ADE097F0900020400030001100B
:10555000030200000302010006000400060500200B
:10556000060504000000000000080775069F0655A8
:1055700007D006AE06C20600000000040C75060146
:105580000C000C000000000E08E107010CB507D963
:1055900007C507B607000000000A0C060C564F4C62
:0655A00000410042000082
:00000001FF
